{
  "_format": "hh-sol-artifact-1",
  "contractName": "TipJar",
  "sourceName": "src/contracts/Tipjar.sol",
  "abi": [
    {
      "inputs": [],
      "stateMutability": "nonpayable",
      "type": "constructor"
    },
    {
      "anonymous": false,
      "inputs": [
        {
          "indexed": true,
          "internalType": "address",
          "name": "from",
          "type": "address"
        },
        {
          "indexed": false,
          "internalType": "uint256",
          "name": "amount",
          "type": "uint256"
        },
        {
          "indexed": false,
          "internalType": "string",
          "name": "message",
          "type": "string"
        },
        {
          "indexed": false,
          "internalType": "string",
          "name": "name",
          "type": "string"
        },
        {
          "indexed": false,
          "internalType": "uint256",
          "name": "timestamp",
          "type": "uint256"
        }
      ],
      "name": "NewTip",
      "type": "event"
    },
    {
      "anonymous": false,
      "inputs": [
        {
          "indexed": false,
          "internalType": "uint256",
          "name": "amount",
          "type": "uint256"
        }
      ],
      "name": "NewWithdrawal",
      "type": "event"
    },
    {
      "inputs": [],
      "name": "getAllTips",
      "outputs": [
        {
          "components": [
            {
              "internalType": "address",
              "name": "sender",
              "type": "address"
            },
            {
              "internalType": "string",
              "name": "message",
              "type": "string"
            },
            {
              "internalType": "string",
              "name": "name",
              "type": "string"
            },
            {
              "internalType": "uint256",
              "name": "timestamp",
              "type": "uint256"
            },
            {
              "internalType": "uint256",
              "name": "amount",
              "type": "uint256"
            }
          ],
          "internalType": "struct TipJar.Tip[]",
          "name": "",
          "type": "tuple[]"
        }
      ],
      "stateMutability": "view",
      "type": "function"
    },
    {
      "inputs": [],
      "name": "getTotalTips",
      "outputs": [
        {
          "internalType": "uint256",
          "name": "",
          "type": "uint256"
        }
      ],
      "stateMutability": "view",
      "type": "function"
    },
    {
      "inputs": [
        {
          "internalType": "string",
          "name": "_message",
          "type": "string"
        },
        {
          "internalType": "string",
          "name": "_name",
          "type": "string"
        }
      ],
      "name": "sendTip",
      "outputs": [],
      "stateMutability": "payable",
      "type": "function"
    },
    {
      "inputs": [],
      "name": "totalTips",
      "outputs": [
        {
          "internalType": "uint256",
          "name": "",
          "type": "uint256"
        }
      ],
      "stateMutability": "view",
      "type": "function"
    },
    {
      "inputs": [],
      "name": "withdraw",
      "outputs": [],
      "stateMutability": "nonpayable",
      "type": "function"
    }
  ],
  "bytecode": "0x608060405234801561001057600080fd5b5033600160006101000a81548173ffffffffffffffffffffffffffffffffffffffff021916908373ffffffffffffffffffffffffffffffffffffffff160217905550610ea7806100616000396000f3fe60806040526004361061004a5760003560e01c8063399ddbbd1461004f5780633ccfd60b1461007a57806354cafb041461009157806355f203b5146100ad578063990de8ae146100d8575b600080fd5b34801561005b57600080fd5b50610064610103565b6040516100719190610a67565b60405180910390f35b34801561008657600080fd5b5061008f6102f0565b005b6100ab60048036038101906100a691906107b5565b6104d1565b005b3480156100b957600080fd5b506100c261069b565b6040516100cf9190610ae9565b60405180910390f35b3480156100e457600080fd5b506100ed6106a4565b6040516100fa9190610ae9565b60405180910390f35b60606002805480602002602001604051908101604052809291908181526020016000905b828210156102e757838290600052602060002090600502016040518060a00160405290816000820160009054906101000a900473ffffffffffffffffffffffffffffffffffffffff1673ffffffffffffffffffffffffffffffffffffffff1673ffffffffffffffffffffffffffffffffffffffff1681526020016001820180546101b090610cf2565b80601f01602080910402602001604051908101604052809291908181526020018280546101dc90610cf2565b80156102295780601f106101fe57610100808354040283529160200191610229565b820191906000526020600020905b81548152906001019060200180831161020c57829003601f168201915b5050505050815260200160028201805461024290610cf2565b80601f016020809104026020016040519081016040528092919081815260200182805461026e90610cf2565b80156102bb5780601f10610290576101008083540402835291602001916102bb565b820191906000526020600020905b81548152906001019060200180831161029e57829003601f168201915b505050505081526020016003820154815260200160048201548152505081526020019060010190610127565b50505050905090565b600160009054906101000a900473ffffffffffffffffffffffffffffffffffffffff1673ffffffffffffffffffffffffffffffffffffffff163373ffffffffffffffffffffffffffffffffffffffff1614610380576040517f08c379a000000000000000000000000000000000000000000000000000000000815260040161037790610aa9565b60405180910390fd5b6000479050600081116103c8576040517f08c379a00000000000000000000000000000000000000000000000000000000081526004016103bf90610ac9565b60405180910390fd5b6000600160009054906101000a900473ffffffffffffffffffffffffffffffffffffffff1673ffffffffffffffffffffffffffffffffffffffff168260405161041090610a52565b60006040518083038185875af1925050503d806000811461044d576040519150601f19603f3d011682016040523d82523d6000602084013e610452565b606091505b5050905080610496576040517f08c379a000000000000000000000000000000000000000000000000000000000815260040161048d90610a89565b60405180910390fd5b7f58eb5dbbf019b25979cf9b1f2b727523a9b05c3a44820f08bed539287844cefd826040516104c59190610ae9565b60405180910390a15050565b343373ffffffffffffffffffffffffffffffffffffffff1631101561052b576040517f08c379a000000000000000000000000000000000000000000000000000000000815260040161052290610ac9565b60405180910390fd5b600160008082825461053d9190610c1e565b9250508190555060026040518060a001604052803373ffffffffffffffffffffffffffffffffffffffff16815260200184815260200183815260200142815260200134815250908060018154018082558091505060019003906000526020600020906005020160009091909190915060008201518160000160006101000a81548173ffffffffffffffffffffffffffffffffffffffff021916908373ffffffffffffffffffffffffffffffffffffffff160217905550602082015181600101908051906020019061060f9291906106aa565b50604082015181600201908051906020019061062c9291906106aa565b50606082015181600301556080820151816004015550503373ffffffffffffffffffffffffffffffffffffffff167f3439cec468662b15f1f853af48e7ad0609a8afa6cc4d4c548baba4072c8091993484843460405161068f9493929190610b04565b60405180910390a25050565b60008054905090565b60005481565b8280546106b690610cf2565b90600052602060002090601f0160209004810192826106d8576000855561071f565b82601f106106f157805160ff191683800117855561071f565b8280016001018555821561071f579182015b8281111561071e578251825591602001919060010190610703565b5b50905061072c9190610730565b5090565b5b80821115610749576000816000905550600101610731565b5090565b600061076061075b84610b7c565b610b57565b90508281526020810184848401111561077857600080fd5b610783848285610cb0565b509392505050565b600082601f83011261079c57600080fd5b81356107ac84826020860161074d565b91505092915050565b600080604083850312156107c857600080fd5b600083013567ffffffffffffffff8111156107e257600080fd5b6107ee8582860161078b565b925050602083013567ffffffffffffffff81111561080b57600080fd5b6108178582860161078b565b9150509250929050565b600061082d83836109b7565b905092915050565b61083e81610c74565b82525050565b600061084f82610bbd565b6108598185610be0565b93508360208202850161086b85610bad565b8060005b858110156108a757848403895281516108888582610821565b945061089383610bd3565b925060208a0199505060018101905061086f565b50829750879550505050505092915050565b60006108c482610bc8565b6108ce8185610bfc565b93506108de818560208601610cbf565b6108e781610de2565b840191505092915050565b60006108fd82610bc8565b6109078185610c0d565b9350610917818560208601610cbf565b61092081610de2565b840191505092915050565b6000610938601283610c0d565b915061094382610df3565b602082019050919050565b600061095b601583610c0d565b915061096682610e1c565b602082019050919050565b600061097e601283610c0d565b915061098982610e45565b602082019050919050565b60006109a1600083610bf1565b91506109ac82610e6e565b600082019050919050565b600060a0830160008301516109cf6000860182610835565b50602083015184820360208601526109e782826108b9565b91505060408301518482036040860152610a0182826108b9565b9150506060830151610a166060860182610a34565b506080830151610a296080860182610a34565b508091505092915050565b610a3d81610ca6565b82525050565b610a4c81610ca6565b82525050565b6000610a5d82610994565b9150819050919050565b60006020820190508181036000830152610a818184610844565b905092915050565b60006020820190508181036000830152610aa28161092b565b9050919050565b60006020820190508181036000830152610ac28161094e565b9050919050565b60006020820190508181036000830152610ae281610971565b9050919050565b6000602082019050610afe6000830184610a43565b92915050565b6000608082019050610b196000830187610a43565b8181036020830152610b2b81866108f2565b90508181036040830152610b3f81856108f2565b9050610b4e6060830184610a43565b95945050505050565b6000610b61610b72565b9050610b6d8282610d24565b919050565b6000604051905090565b600067ffffffffffffffff821115610b9757610b96610db3565b5b610ba082610de2565b9050602081019050919050565b6000819050602082019050919050565b600081519050919050565b600081519050919050565b6000602082019050919050565b600082825260208201905092915050565b600081905092915050565b600082825260208201905092915050565b600082825260208201905092915050565b6000610c2982610ca6565b9150610c3483610ca6565b9250827fffffffffffffffffffffffffffffffffffffffffffffffffffffffffffffffff03821115610c6957610c68610d55565b5b828201905092915050565b6000610c7f82610c86565b9050919050565b600073ffffffffffffffffffffffffffffffffffffffff82169050919050565b6000819050919050565b82818337600083830152505050565b60005b83811015610cdd578082015181840152602081019050610cc2565b83811115610cec576000848401525b50505050565b60006002820490506001821680610d0a57607f821691505b60208210811415610d1e57610d1d610d84565b5b50919050565b610d2d82610de2565b810181811067ffffffffffffffff82111715610d4c57610d4b610db3565b5b80604052505050565b7f4e487b7100000000000000000000000000000000000000000000000000000000600052601160045260246000fd5b7f4e487b7100000000000000000000000000000000000000000000000000000000600052602260045260246000fd5b7f4e487b7100000000000000000000000000000000000000000000000000000000600052604160045260246000fd5b6000601f19601f8301169050919050565b7f4661696c656420746f2077697468647261770000000000000000000000000000600082015250565b7f596f7520617265206e6f7420746865206f776e65720000000000000000000000600082015250565b7f496e73756666696369656e742066756e64730000000000000000000000000000600082015250565b5056fea2646970667358221220a127de8eda8d339798d5f07275231cfab06e3d50d7864e59de8a94fa27d7d72364736f6c63430008040033",
  "linkReferences": {},
  "deployedLinkReferences": {}
}